:020000040000FA
:04000000FDEF02F01E
:020008001000E6
:080018001000140E016EFA0E37
:10002000006E000000000000000000000000000062
:1000300000000000000000000000000000000000C0
:1000400000000000002EEDD7012EE9D71200500E5F
:10005000016EFA0E006E00000000000000000000BB
:100060000000000000000000000000000000000090
:100070000000000000000000000000000000000080
:100080000000000000000000000000000000000070
:100090000000000000000000000000000000000060
:1000A0000000000000000000000000000000000050
:1000B0000000000000000000000000000000000040
:1000C0000000000000000000000000000000000030
:1000D0000000000000000000000000000000000020
:1000E0000000000000000000000000000000000010
:1000F0000000000000000000000000000000000000
:1001000000000000000000000000000000000000EF
:1001100000000000000000000000000000000000DF
:1001200000000000000000000000000000000000CF
:1001300000000000000000000000000000000000BF
:1001400000000000000000000000000000000000AF
:10015000000000000000000000000000000000009F
:10016000000000000000000000000000000000008F
:10017000000000000000000000000000000000007F
:10018000000000000000000000000000000000006F
:10019000000000000000000000000000000000005F
:1001A000000000000000000000000000000000004F
:1001B000000000000000000000000000000000003F
:1001C000000000000000000000000000000000002F
:1001D000000000000000000000000000000000001F
:1001E000000000000000000000000000000000000F
:1001F00000000000000000000000000000000000FF
:1002000000000000000000000000000000000000EE
:1002100000000000000000000000000000000000DE
:1002200000000000000000000000000000000000CE
:1002300000000000000000000000000000000000BE
:1002400000000000002E07D7012E03D71200100E69
:10025000016EFA0E006E00000000000000000000B9
:10026000000000000000000000000000000000008E
:10027000000000000000000000000000000000007E
:10028000000000000000000000000000000000006E
:10029000000000000000000000000000000000005E
:1002A000000000000000000000000000000000004E
:1002B000000000000000000000000000000000003E
:1002C000000000000000000000000000000000002E
:1002D000000000000000000000000000000000001E
:1002E000000000000000000000000000000000000E
:1002F00000000000000000000000000000000000FE
:1003000000000000000000000000000000000000ED
:1003100000000000000000000000000000000000DD
:1003200000000000000000000000000000000000CD
:1003300000000000000000000000000000000000BD
:1003400000000000000000000000000000000000AD
:10035000000000000000000000000000000000009D
:10036000000000000000000000000000000000008D
:10037000000000000000000000000000000000007D
:10038000000000000000000000000000000000006D
:10039000000000000000000000000000000000005D
:1003A000000000000000000000000000000000004D
:1003B000000000000000000000000000000000003D
:1003C000000000000000000000000000000000002D
:1003D000000000000000000000000000000000001D
:1003E000000000000000000000000000000000000D
:1003F00000000000000000000000000000000000FD
:1004000000000000000000000000000000000000EC
:1004100000000000000000000000000000000000DC
:1004200000000000000000000000000000000000CC
:1004300000000000000000000000000000000000BC
:1004400000000000002E07D7012E03D7120082986B
:10045000829A828C0DEC00F0829C12008288829A33
:10046000828C0DEC00F0829C1200010E836E27EC52
:1004700002F01200C00E836E27EC02F01200480E4C
:10048000836E2EEC02F0610E836E2EEC02F0720E83
:10049000836E2EEC02F0720E836E2EEC02F0690E6B
:1004A000836E2EEC02F0650E836E2EEC02F0790E58
:1004B000836E2EEC02F027EC00F01200440E836EE7
:1004C0002EEC02F0450E836E2EEC02F0390E836E98
:1004D0002EEC02F0370E836E2EEC02F0330E836E9C
:1004E0002EEC02F0310E836E2EEC02F0320E836E93
:1004F0002EEC02F027EC00F012003AEC02F0310E84
:10050000836E2EEC02F027EC01F012003AEC02F0C0
:10051000320E836E2EEC02F027EC01F012003AEC62
:1005200002F0330E836E2EEC02F027EC01F0120085
:100530003AEC02F0340E836E2EEC02F027EC01F060
:1005400012003AEC02F0350E836E2EEC02F027EC2E
:1005500001F012003AEC02F0360E836E2EEC02F03F
:1005600027EC01F012003AEC02F0370E836E2EEC0D
:1005700002F027EC01F012003AEC02F0380E836E24
:100580002EEC02F027EC01F012003AEC02F0390EEA
:10059000836E2EEC02F027EC01F012003AEC02F030
:1005A0002A0E836E2EEC02F027EC01F012003AECDA
:1005B00002F0300E836E2EEC02F027EC01F01200F8
:1005C0003AEC02F0230E836E2EEC02F027EC01F0E1
:1005D00012008188819A819C819E12008198818A73
:1005E000819C819E12008198819A818C819E12004B
:1005F0008198819A819C818E1200030E946E956A77
:100600000E0E936E380E836E27EC02F00F0E836E83
:1006100027EC02F082A005D03FEC02F035EC02F0AE
:1006200000D082A205D05EEC02F035EC02F000D0E2
:10063000E9EC02F081A205D07DEC02F035EC02F08D
:1006400000D0E9EC02F081A405D086EC02F035EC94
:1006500002F000D0E9EC02F081A605D08FEC02F0A8
:1006600035EC02F000D0EEEC02F081A205D098EC5F
:1006700002F035EC02F000D0EEEC02F081A405D0DF
:10068000A1EC02F035EC02F000D0EEEC02F081A615
:1006900005D0AAEC02F035EC02F000D0F3EC02F049
:1006A00081A205D0B3EC02F035EC02F000D0F3ECFF
:1006B00002F081A405D0BCEC02F035EC02F000D0D1
:1006C000F3EC02F081A605D0C5EC02F035EC02F0A7
:1006D00000D0F8EC02F081A205D0CEEC02F035ECAF
:1006E00002F000D0F8EC02F081A405D0D7EC02F0C3
:1006F00035EC02F000D0F8EC02F081A68BD7E0ECEC
:0807000002F035EC02F086D78F
:00000001FF
