:020000040000FA
:04000000FEEF02F01D
:020008001000E6
:080018001000140E016EFA0E37
:10002000006E000000000000000000000000000062
:1000300000000000000000000000000000000000C0
:1000400000000000002EEDD7012EE9D71200500E5F
:10005000016EFA0E006E00000000000000000000BB
:100060000000000000000000000000000000000090
:100070000000000000000000000000000000000080
:100080000000000000000000000000000000000070
:100090000000000000000000000000000000000060
:1000A0000000000000000000000000000000000050
:1000B0000000000000000000000000000000000040
:1000C0000000000000000000000000000000000030
:1000D0000000000000000000000000000000000020
:1000E0000000000000000000000000000000000010
:1000F0000000000000000000000000000000000000
:1001000000000000000000000000000000000000EF
:1001100000000000000000000000000000000000DF
:1001200000000000000000000000000000000000CF
:1001300000000000000000000000000000000000BF
:1001400000000000000000000000000000000000AF
:10015000000000000000000000000000000000009F
:10016000000000000000000000000000000000008F
:10017000000000000000000000000000000000007F
:10018000000000000000000000000000000000006F
:10019000000000000000000000000000000000005F
:1001A000000000000000000000000000000000004F
:1001B000000000000000000000000000000000003F
:1001C000000000000000000000000000000000002F
:1001D000000000000000000000000000000000001F
:1001E000000000000000000000000000000000000F
:1001F00000000000000000000000000000000000FF
:1002000000000000000000000000000000000000EE
:1002100000000000000000000000000000000000DE
:1002200000000000000000000000000000000000CE
:1002300000000000000000000000000000000000BE
:1002400000000000002E07D7012E03D7100E016E0C
:10025000FA0E006E00000000000000000000000028
:10026000000000000000000000000000000000008E
:10027000000000000000000000000000000000007E
:10028000000000000000000000000000000000006E
:10029000000000000000000000000000000000005E
:1002A000000000000000000000000000000000004E
:1002B000000000000000000000000000000000003E
:1002C000000000000000000000000000000000002E
:1002D000000000000000000000000000000000001E
:1002E000000000000000000000000000000000000E
:1002F00000000000000000000000000000000000FE
:1003000000000000000000000000000000000000ED
:1003100000000000000000000000000000000000DD
:1003200000000000000000000000000000000000CD
:1003300000000000000000000000000000000000BD
:1003400000000000000000000000000000000000AD
:10035000000000000000000000000000000000009D
:10036000000000000000000000000000000000008D
:10037000000000000000000000000000000000007D
:10038000000000000000000000000000000000006D
:10039000000000000000000000000000000000005D
:1003A000000000000000000000000000000000004D
:1003B000000000000000000000000000000000003D
:1003C000000000000000000000000000000000002D
:1003D000000000000000000000000000000000001D
:1003E000000000000000000000000000000000000D
:1003F00000000000000000000000000000000000FD
:1004000000000000000000000000000000000000EC
:1004100000000000000000000000000000000000DC
:1004200000000000000000000000000000000000CC
:1004300000000000000000000000000000000000BC
:100440000000002E07D7012E03D712008298829A4F
:10045000828C0DEC00F0829C12008288829A828C41
:100460000DEC00F0829C1200010E836E26EC02F06F
:100470001200C00E836E26EC02F01200480E836E4E
:100480002DEC02F0610E836E2DEC02F0720E836E85
:100490002DEC02F0720E836E2DEC02F0690E836E6D
:1004A0002DEC02F0650E836E2DEC02F0790E836E5A
:1004B0002DEC02F027EC00F01200440E836E2DECC0
:1004C00002F0450E836E2DEC02F0390E836E2DEC9A
:1004D00002F0370E836E2DEC02F0330E836E2DEC9E
:1004E00002F0310E836E2DEC02F0320E836E2DEC95
:1004F00002F027EC00F0120039EC02F0310E836EAE
:100500002DEC02F026EC01F0120039EC02F0320E74
:10051000836E2DEC02F026EC01F0120039EC02F0B3
:10052000330E836E2DEC02F026EC01F0120039EC54
:1005300002F0340E836E2DEC02F026EC01F0120076
:1005400039EC02F0350E836E2DEC02F026EC01F052
:10055000120039EC02F0360E836E2DEC02F026EC20
:1005600001F0120039EC02F0370E836E2DEC02F030
:1005700026EC01F0120039EC02F0380E836E2DECFF
:1005800002F026EC01F0120039EC02F0390E836E15
:100590002DEC02F026EC01F0120039EC02F02A0EEC
:1005A000836E2DEC02F026EC01F0120039EC02F023
:1005B000300E836E2DEC02F026EC01F0120039ECC7
:1005C00002F0230E836E2DEC02F026EC01F01200F7
:1005D0008188819A819C819E12008198818A819C68
:1005E000819E12008198819A818C819E120081984F
:1005F000819A819C818E120000001200030E946E7D
:10060000956A0E0E936E380E836E26EC02F00F0E76
:10061000836E26EC02F082A005D03EEC02F034ECB2
:1006200002F000D082A205D05DEC02F034EC02F0C2
:1006300000D0E8EC02F081A205D07CEC02F034ECB2
:1006400002F000D0E8EC02F081A405D085EC02F0C5
:1006500034EC02F000D0E8EC02F081A605D08EEC7C
:1006600002F034EC02F000D0EDEC02F081A205D0F3
:1006700097EC02F034EC02F000D0EDEC02F081A433
:1006800005D0A0EC02F034EC02F000D0EDEC02F06A
:1006900081A605D0A9EC02F034EC02F000D0F2EC17
:1006A00002F081A205D0B2EC02F034EC02F000D0EE
:1006B000F2EC02F081A405D0BBEC02F034EC02F0C5
:1006C00000D0F2EC02F081A605D0C4EC02F034ECCC
:1006D00002F000D0F7EC02F081A205D0CDEC02F0E0
:1006E00034EC02F000D0F7EC02F081A405D0D6EC97
:1006F00002F034EC02F000D0F7EC02F081A68BD7C8
:0A070000DFEC02F034EC02F086D7C3
:00000001FF
